{"abi":[{"type":"constructor","inputs":[{"name":"_factory","type":"address","internalType":"address"}],"stateMutability":"nonpayable"},{"type":"function","name":"addLiquidity","inputs":[{"name":"tokenA","type":"address","internalType":"address"},{"name":"tokenB","type":"address","internalType":"address"},{"name":"amountA","type":"uint256","internalType":"uint256"},{"name":"amountB","type":"uint256","internalType":"uint256"},{"name":"to","type":"address","internalType":"address"}],"outputs":[{"name":"liquidity","type":"uint256","internalType":"uint256"}],"stateMutability":"nonpayable"},{"type":"function","name":"factory","inputs":[],"outputs":[{"name":"","type":"address","internalType":"contract MiniFactory"}],"stateMutability":"view"},{"type":"function","name":"getAmountOut","inputs":[{"name":"amountIn","type":"uint256","internalType":"uint256"},{"name":"reserveIn","type":"uint256","internalType":"uint256"},{"name":"reserveOut","type":"uint256","internalType":"uint256"}],"outputs":[{"name":"amountOut","type":"uint256","internalType":"uint256"}],"stateMutability":"pure"},{"type":"function","name":"getPriceImpact","inputs":[{"name":"amountIn","type":"uint256","internalType":"uint256"},{"name":"reserveIn","type":"uint256","internalType":"uint256"},{"name":"reserveOut","type":"uint256","internalType":"uint256"}],"outputs":[{"name":"priceImpactBps","type":"uint256","internalType":"uint256"}],"stateMutability":"pure"},{"type":"function","name":"removeLiquidity","inputs":[{"name":"tokenA","type":"address","internalType":"address"},{"name":"tokenB","type":"address","internalType":"address"},{"name":"liquidity","type":"uint256","internalType":"uint256"},{"name":"to","type":"address","internalType":"address"}],"outputs":[{"name":"amountA","type":"uint256","internalType":"uint256"},{"name":"amountB","type":"uint256","internalType":"uint256"}],"stateMutability":"nonpayable"},{"type":"function","name":"swapExactTokensForTokens","inputs":[{"name":"amountIn","type":"uint256","internalType":"uint256"},{"name":"minAmountOut","type":"uint256","internalType":"uint256"},{"name":"tokenIn","type":"address","internalType":"address"},{"name":"tokenOut","type":"address","internalType":"address"},{"name":"to","type":"address","internalType":"address"}],"outputs":[{"name":"amountOut","type":"uint256","internalType":"uint256"}],"stateMutability":"nonpayable"}],"bytecode":{"object":"0x60a0346100ba57601f610ef138819003918201601f19168301916001600160401b038311848410176100be578084926020946040528339810103126100ba57516001600160a01b038116908190036100ba57801561008657608052604051610e1e90816100d3823960805181818160710152818161013c015281816103f501526106990152f35b60405162461bcd60e51b815260206004820152600c60248201526b5a45524f5f464143544f525960a01b6044820152606490fd5b5f80fd5b634e487b7160e01b5f52604160045260245ffdfe60806040526004361015610011575f80fd5b5f5f3560e01c8063054d50d414610af757806316ff742414610a36578063268a380b1461060057806335d376641461038e5780634b2fc7bb146100a35763c45a01551461005c575f80fd5b346100a057806003193601126100a0576040517f00000000000000000000000000000000000000000000000000000000000000006001600160a01b03168152602090f35b80fd5b50346100a05760a03660031901126100a0576100bd610b56565b6100c5610b6c565b604435606435926100d4610b40565b9082151580610385575b1561034e578594610138946001600160a01b03838116939082169160209161010886851415610caa565b60405163e6a4390560e01b81526001600160a01b0391821660048201529116602482015296879081906044820190565b03817f00000000000000000000000000000000000000000000000000000000000000006001600160a01b03165afa92831561030d5787968794610318575b506001600160a01b038416956020916101cd91610194891515610d3e565b6040516323b872dd60e01b81523360048201526001600160a01b0388166024820152604481019190915298899283919082906064820190565b03925af192831561030d57610222966020946102f2575b506040516323b872dd60e01b81523360048201526001600160a01b039091166024820152604481019290925290948591908290889082906064820190565b03925af19081156102e7576020936024926102bc575b506040516335313c2160e11b81526001600160a01b0390911660048201529384928391905af19081156102b1578291610277575b602082604051908152f35b90506020813d6020116102a9575b8161029260209383610ce9565b810103126102a55760209150515f61026c565b5080fd5b3d9150610285565b6040513d84823e3d90fd5b6102db90853d87116102e0575b6102d38183610ce9565b810190610d7c565b610238565b503d6102c9565b6040513d86823e3d90fd5b61030890853d87116102e0576102d38183610ce9565b6101e4565b6040513d89823e3d90fd5b602091945061033f6101cd91833d8511610347575b6103378183610ce9565b810190610d1f565b949150610176565b503d61032d565b60405162461bcd60e51b815260206004820152600f60248201526e494e56414c49445f414d4f554e545360881b6044820152606490fd5b508415156100de565b50346100a05760803660031901126100a0576103a8610b56565b6103b0610b6c565b90604435906103bd610b2a565b9180156105c75760405163e6a4390560e01b81526001600160a01b0380841660048301529094166024850152602084806044810103817f00000000000000000000000000000000000000000000000000000000000000006001600160a01b03165afa9384156105385785946105a1575b506001600160a01b038416936104829160209161044b871515610d3e565b6040516323b872dd60e01b81523360048201526001600160a01b039091166024820152604481019190915291829081906064820190565b038188885af1801561053857610584575b506040805163226bf2d160e21b81526001600160a01b0390931660048401528260248187875af19283156102e75784928594610543575b50602060049160405192838092630dfe168160e01b82525afa9081156105385760409591610519575b506001600160a01b0391821691160361051457905b82519182526020820152f35b610508565b610532915060203d602011610347576103378183610ce9565b5f6104f3565b6040513d87823e3d90fd5b925092506040823d60401161057c575b8161056060409383610ce9565b810103126105785781516020928301519390926104ca565b8380fd5b3d9150610553565b61059c9060203d6020116102e0576102d38183610ce9565b610493565b6104829194506105bf602091823d8411610347576103378183610ce9565b94915061042d565b60405162461bcd60e51b8152602060048201526011602482015270494e56414c49445f4c495155494449545960781b6044820152606490fd5b50346108e05760a03660031901126108e0576024356044356001600160a01b03811690600435908281036108e057610636610b2a565b9161063f610b40565b9381156109fd57610695936001600160a01b038116936020919061066584871415610caa565b60405163e6a4390560e01b81526001600160a01b0391821660048201529116602482015294859081906044820190565b03817f00000000000000000000000000000000000000000000000000000000000000006001600160a01b03165afa9384156108d5575f946109dc575b506001600160a01b038416936106f190602090849061044b881515610d3e565b03815f865af180156108d5576109bf575b5060408051630240bc6b60e21b8152939084600481885afa9182156108d5575f945f93610976575b50604051630dfe168160e01b8152906020826004818a5afa9182156108d5575f92610955575b5060405163d21220a760e01b8152916020836004818b5afa9283156108d5575f93610934575b506001600160a01b03169181831480610922575b1561082f5750505050869493926107ba926001600160701b03806107b19416921690610bad565b94851015610da8565b803b1561082b576064839260405194859384926336cd320560e11b845282600485015288602485015260018060a01b031660448401525af180156108205761080b575b50602091505b604051908152f35b610816838092610ce9565b6102a557816107fd565b6040513d85823e3d90fd5b8280fd5b909192939496995060018060a01b0316149182610918575b5050156108e457610871926001600160701b03806108689416921690610bad565b92831015610da8565b823b156108e0576040516336cd320560e11b8152600481018390525f602482018190526001600160a01b039092166044820152928390606490829084905af19182156108d5576020926108c5575b50610803565b5f6108cf91610ce9565b5f6108bf565b6040513d5f823e3d90fd5b5f80fd5b60405162461bcd60e51b815260206004820152600c60248201526b0929cac82989288bea082a8960a31b6044820152606490fd5b1490505f80610847565b506001600160a01b038116841461078a565b61094e91935060203d602011610347576103378183610ce9565b915f610776565b61096f91925060203d602011610347576103378183610ce9565b905f610750565b945091506040843d6040116109b7575b8161099360409383610ce9565b810103126108e0576109b060206109a986610d94565b9501610d94565b915f61072a565b3d9150610986565b6109d79060203d6020116102e0576102d38183610ce9565b610702565b6109f691945060203d602011610347576103378183610ce9565b925f6106d1565b60405162461bcd60e51b815260206004820152601160248201527024a72b20a624a22fa0a6a7aaa72a2fa4a760791b6044820152606490fd5b346108e057610a4436610b10565b90670de0b6b3a7640000820290828204670de0b6b3a76400001483151715610ae357610a88610a7682610a8e94610b8f565b94610a82858483610bad565b92610b82565b92610c9d565b670de0b6b3a7640000810290808204670de0b6b3a76400001490151715610ae357610ac291610abc91610b8f565b82610c9d565b6127108102908082046127101490151715610ae35760209161080391610b8f565b634e487b7160e01b5f52601160045260245ffd5b346108e0576020610803610b0a36610b10565b91610bad565b60609060031901126108e057600435906024359060443590565b606435906001600160a01b03821682036108e057565b608435906001600160a01b03821682036108e057565b600435906001600160a01b03821682036108e057565b602435906001600160a01b03821682036108e057565b91908201809211610ae357565b8115610b99570490565b634e487b7160e01b5f52601260045260245ffd5b91908215610c58578015801580610c4f575b15610c11576103e58402938085046103e503610ae357836103e5910202928484041484151715610ae3576103e882029182046103e8141715610ae357610c0e92610c0891610b82565b90610b8f565b90565b60405162461bcd60e51b8152602060048201526016602482015275494e53554646494349454e545f4c495155494449545960501b6044820152606490fd5b50821515610bbf565b60405162461bcd60e51b815260206004820152601960248201527f494e53554646494349454e545f494e5055545f414d4f554e54000000000000006044820152606490fd5b91908203918211610ae357565b15610cb157565b60405162461bcd60e51b815260206004820152601060248201526f4944454e544943414c5f544f4b454e5360801b6044820152606490fd5b90601f8019910116810190811067ffffffffffffffff821117610d0b57604052565b634e487b7160e01b5f52604160045260245ffd5b908160209103126108e057516001600160a01b03811681036108e05790565b15610d4557565b60405162461bcd60e51b815260206004820152600f60248201526e504149525f4e4f545f45584953545360881b6044820152606490fd5b908160209103126108e0575180151581036108e05790565b51906001600160701b03821682036108e057565b15610daf57565b60405162461bcd60e51b815260206004820152601160248201527014d31254141051d157d15610d151511151607a1b6044820152606490fdfea264697066735822122052c38c09c6bdd146d2cbd7903810e8d85aa1bf8a2af6fe66cbffd7318d79be8464736f6c634300081e0033","linkReferences":{}},"methodIdentifiers":{"addLiquidity(address,address,uint256,uint256,address)":"4b2fc7bb","factory()":"c45a0155","getAmountOut(uint256,uint256,uint256)":"054d50d4","getPriceImpact(uint256,uint256,uint256)":"16ff7424","removeLiquidity(address,address,uint256,address)":"35d37664","swapExactTokensForTokens(uint256,uint256,address,address,address)":"268a380b"},"id":27}