{"abi":[{"type":"constructor","inputs":[{"name":"_token0","type":"address","internalType":"address"},{"name":"_token1","type":"address","internalType":"address"}],"stateMutability":"nonpayable"},{"type":"function","name":"getReserves","inputs":[],"outputs":[{"name":"_reserve0","type":"uint112","internalType":"uint112"},{"name":"_reserve1","type":"uint112","internalType":"uint112"}],"stateMutability":"view"},{"type":"function","name":"swap","inputs":[{"name":"amount0Out","type":"uint256","internalType":"uint256"},{"name":"amount1Out","type":"uint256","internalType":"uint256"},{"name":"to","type":"address","internalType":"address"}],"outputs":[],"stateMutability":"nonpayable"},{"type":"function","name":"sync","inputs":[],"outputs":[],"stateMutability":"nonpayable"},{"type":"function","name":"token0","inputs":[],"outputs":[{"name":"","type":"address","internalType":"address"}],"stateMutability":"view"},{"type":"function","name":"token1","inputs":[],"outputs":[{"name":"","type":"address","internalType":"address"}],"stateMutability":"view"},{"type":"event","name":"Swap","inputs":[{"name":"sender","type":"address","indexed":true,"internalType":"address"},{"name":"amount0In","type":"uint256","indexed":false,"internalType":"uint256"},{"name":"amount1In","type":"uint256","indexed":false,"internalType":"uint256"},{"name":"amount0Out","type":"uint256","indexed":false,"internalType":"uint256"},{"name":"amount1Out","type":"uint256","indexed":false,"internalType":"uint256"},{"name":"to","type":"address","indexed":true,"internalType":"address"}],"anonymous":false},{"type":"event","name":"Sync","inputs":[{"name":"reserve0","type":"uint112","indexed":false,"internalType":"uint112"},{"name":"reserve1","type":"uint112","indexed":false,"internalType":"uint112"}],"anonymous":false}],"bytecode":{"object":"0x60c03461014257601f610a9038819003918201601f19168301916001600160401b0383118484101761014657808492604094855283398101031261014257610052602061004b8361015a565b920161015a565b906001600160a01b038083169082168082146100fd57151590816100f3575b50156100bf5760805260a052604051610921908161016f8239608051818181607e0152818161024801526106b3015260a05181818160d3015281816101a30152818161028a01526105ab0152f35b60405162461bcd60e51b815260206004820152600c60248201526b5a45524f5f4144445245535360a01b6044820152606490fd5b905015155f610071565b60405162461bcd60e51b815260206004820152601360248201527f4944454e544943414c5f414444524553534553000000000000000000000000006044820152606490fd5b5f80fd5b634e487b7160e01b5f52604160045260245ffd5b51906001600160a01b03821682036101425756fe6080806040526004361015610012575f80fd5b5f3560e01c9081630902f1ac146106e2575080630dfe16811461069e5780636d9a640a146101d2578063d21220a71461018e5763fff6cae914610053575f80fd5b34610145575f366003190112610145576040516370a0823160e01b81523060048201526020816024817f00000000000000000000000000000000000000000000000000000000000000006001600160a01b03165afa908115610151575f9161015c575b506040516370a0823160e01b8152306004820152906020826024817f00000000000000000000000000000000000000000000000000000000000000006001600160a01b03165afa908115610151575f91610117575b6101159250610824565b005b90506020823d602011610149575b8161013260209383610712565b810103126101455761011591519061010b565b5f80fd5b3d9150610125565b6040513d5f823e3d90fd5b90506020813d602011610186575b8161017760209383610712565b8101031261014557515f6100b6565b3d915061016a565b34610145575f366003190112610145576040517f00000000000000000000000000000000000000000000000000000000000000006001600160a01b03168152602090f35b34610145576060366003190112610145576044356001600160a01b038116906024356004358383036101455760015460ff81166106705760019060ff191617600155801580158091610667575b15610622575f54936001600160701b038086169560701c169185841080610619575b156105db577f00000000000000000000000000000000000000000000000000000000000000006001600160a01b03811688811415806105a8575b156105765783602092876024967f000000000000000000000000000000000000000000000000000000000000000096610565575b5050508780610554575b50506040516370a0823160e01b815230600482015293849182905afa918215610151575f9261051f575b506040516370a0823160e01b815230600482015290602090829060249082906001600160a01b03165afa908115610151575f916104ed575b505f956103288582610748565b83116104d8575b5f9361033b8782610748565b83116104bd575b87158015816104b4575b1561046f576103e88502908582046103e8148615171561045b5760038a02908a8204600314171561045b5761038091610748565b906103e88402918483046103e8148515171561045b5760038702908782046003148815171561045b576103b96103bf926103c595610748565b90610755565b92610755565b90620f4240820291808304620f4240149015171561045b5710610432576103eb91610824565b6040519384526020840152604083015260608201527fd78ad95fa46c994b6551d0da85fc275fe613ce37657fb8d5e3d130840159d82260803392a36001805460ff19169055005b60405162461bcd60e51b81526020600482015260016024820152604b60f81b6044820152606490fd5b634e487b7160e01b5f52601160045260245ffd5b60405162461bcd60e51b815260206004820152601960248201527f494e53554646494349454e545f494e5055545f414d4f554e54000000000000006044820152606490fd5b5085151561034c565b93506104d26104cc8786610748565b83610748565b93610342565b95506104e76104cc8588610748565b9561032f565b90506020813d602011610517575b8161050860209383610712565b8101031261014557518761031b565b3d91506104fb565b9091506020813d60201161054c575b8161053b60209383610712565b8101031261014557519060206102e3565b3d915061052e565b61055e9185610768565b89876102b9565b61056e92610768565b8a87826102af565b60405162461bcd60e51b815260206004820152600a602482015269494e56414c49445f544f60b01b6044820152606490fd5b507f00000000000000000000000000000000000000000000000000000000000000006001600160a01b031689141561027b565b60405162461bcd60e51b8152602060048201526016602482015275494e53554646494349454e545f4c495155494449545960501b6044820152606490fd5b50828510610241565b60405162461bcd60e51b815260206004820152601a60248201527f494e53554646494349454e545f4f55545055545f414d4f554e540000000000006044820152606490fd5b5082151561021f565b60405162461bcd60e51b81526020600482015260066024820152651313d0d2d15160d21b6044820152606490fd5b34610145575f366003190112610145576040517f00000000000000000000000000000000000000000000000000000000000000006001600160a01b03168152602090f35b34610145575f366003190112610145575f546001600160701b03808216835260709190911c166020820152604090f35b90601f8019910116810190811067ffffffffffffffff82111761073457604052565b634e487b7160e01b5f52604160045260245ffd5b9190820391821161045b57565b8181029291811591840414171561045b57565b60405163a9059cbb60e01b81526001600160a01b0392831660048201526024810193909352602091839160449183915f91165af1908115610151575f916107e9575b50156107b257565b60405162461bcd60e51b815260206004820152600f60248201526e1514905394d1915497d19052531151608a1b6044820152606490fd5b90506020813d60201161081c575b8161080460209383610712565b8101031261014557518015158103610145575f6107aa565b3d91506107f7565b6001600160701b03811115806108da575b156108aa575f80546001600160e01b0319166001600160701b03928316908117607094851b6dffffffffffffffffffffffffffff60701b161791829055604080519182529190931c90911660208301527f1c411e9a96e071241c2f21f7726b17ae89e3cab4c78be50e062b03a9fffbbad191a1565b60405162461bcd60e51b81526020600482015260086024820152674f564552464c4f5760c01b6044820152606490fd5b506001600160701b0382111561083556fea26469706673582212209aa03d43ac524798d5bdb440f6171a7e63dcf79c4a1ba273f77707d2c96cf7a664736f6c634300081e0033","linkReferences":{}},"methodIdentifiers":{"getReserves()":"0902f1ac","swap(uint256,uint256,address)":"6d9a640a","sync()":"fff6cae9","token0()":"0dfe1681","token1()":"d21220a7"},"id":25}