{"abi":[{"type":"function","name":"allPairs","inputs":[{"name":"","type":"uint256","internalType":"uint256"}],"outputs":[{"name":"","type":"address","internalType":"address"}],"stateMutability":"view"},{"type":"function","name":"allPairsLength","inputs":[],"outputs":[{"name":"","type":"uint256","internalType":"uint256"}],"stateMutability":"view"},{"type":"function","name":"createPair","inputs":[{"name":"tokenA","type":"address","internalType":"address"},{"name":"tokenB","type":"address","internalType":"address"}],"outputs":[{"name":"pair","type":"address","internalType":"address"}],"stateMutability":"nonpayable"},{"type":"function","name":"getPair","inputs":[{"name":"","type":"address","internalType":"address"},{"name":"","type":"address","internalType":"address"}],"outputs":[{"name":"","type":"address","internalType":"address"}],"stateMutability":"view"},{"type":"event","name":"PairCreated","inputs":[{"name":"token0","type":"address","indexed":true,"internalType":"address"},{"name":"token1","type":"address","indexed":true,"internalType":"address"},{"name":"pair","type":"address","indexed":false,"internalType":"address"},{"name":"index","type":"uint256","indexed":false,"internalType":"uint256"}],"anonymous":false}],"bytecode":{"object":"0x60808060405234601557611df2908161001a8239f35b5f80fdfe60806040526004361015610011575f80fd5b5f3560e01c80631e3dd18b14610326578063574f2ba314610309578063c9c653961461009a5763e6a4390514610045575f80fd5b346100965760403660031901126100965761005e610394565b6100666103aa565b6001600160a01b039182165f90815260208181526040808320938516835292815290829020549151919092168152f35b5f80fd5b34610096576040366003190112610096576100b3610394565b6100bb6103aa565b906001600160a01b038083169082168082146102ce5710156102c8575b6001600160a01b0316908115610294575f828152602081815260408083206001600160a01b03858116855292529091205416610261576040516119fc918282019282841067ffffffffffffffff8511176102425760409183916103c183398585526001600160a01b031660208501819052930301905ff08015610256575f83815260208181526040808320858452825280832080546001600160a01b03199081166001600160a01b039690961695861790915583835281842087855290925290912080549091168217905560015490919068010000000000000000811015610242578060016101ca9201600155610368565b81546001600160a01b0360039290921b91821b19169084901b1790556001545f1981019390841161022e577f0d3648bd0f6ba80134a33ba9275ac585d9d315f0ad8355cddefde31afa28d0e9604060209581519086825287820152a3604051908152f35b634e487b7160e01b5f52601160045260245ffd5b634e487b7160e01b5f52604160045260245ffd5b6040513d5f823e3d90fd5b60405162461bcd60e51b815260206004820152600b60248201526a504149525f45584953545360a81b6044820152606490fd5b60405162461bcd60e51b815260206004820152600c60248201526b5a45524f5f4144445245535360a01b6044820152606490fd5b906100d8565b60405162461bcd60e51b81526020600482015260136024820152724944454e544943414c5f41444452455353455360681b6044820152606490fd5b34610096575f366003190112610096576020600154604051908152f35b34610096576020366003190112610096576004356001548110156100965761034f602091610368565b905460405160039290921b1c6001600160a01b03168152f35b6001548110156103805760015f5260205f2001905f90565b634e487b7160e01b5f52603260045260245ffd5b600435906001600160a01b038216820361009657565b602435906001600160a01b03821682036100965756fe60c06040523461043b576119fc6040813803918261001c8161043f565b93849283398101031261043b5761003e602061003783610464565b9201610464565b90610049604061043f565b91600d83526c26b4b734902628102a37b5b2b760991b602084015261006e604061043f565b600381526204d4c560ec1b602082015283519092906001600160401b03811161034c57600354600181811c91168015610431575b602082101461032e57601f81116103ce575b50602094601f821160011461036b579481929394955f92610360575b50508160011b915f199060031b1c1916176003555b82516001600160401b03811161034c57600454600181811c91168015610342575b602082101461032e57601f81116102cb575b506020601f821160011461026857819293945f9261025d575b50508160011b915f199060031b1c1916176004555b6001600160a01b03828116908216808214610218578015158061020f575b156101db5710156101d5575b60805260a0526040516115839081610479823960805181818160f701528181610419015281816107e501528181610c8a0152610fcc015260a05181818161014c0152818161026c015281816104710152818161082701528181610b510152610cd70152f35b90610170565b60405162461bcd60e51b815260206004820152600c60248201526b5a45524f5f4144445245535360a01b6044820152606490fd5b50811515610164565b60405162461bcd60e51b815260206004820152601360248201527f4944454e544943414c5f414444524553534553000000000000000000000000006044820152606490fd5b015190505f80610131565b601f1982169060045f52805f20915f5b8181106102b35750958360019596971061029b575b505050811b01600455610146565b01515f1960f88460031b161c191690555f808061028d565b9192602060018192868b015181550194019201610278565b60045f527f8a35acfbc15ff81a39ae7d344fd709f28e8600b4aa8c65c6b64bfe7fe36bd19b601f830160051c81019160208410610324575b601f0160051c01905b8181106103195750610118565b5f815560010161030c565b9091508190610303565b634e487b7160e01b5f52602260045260245ffd5b90607f1690610106565b634e487b7160e01b5f52604160045260245ffd5b015190505f806100d0565b601f1982169560035f52805f20915f5b8881106103b65750836001959697981061039e575b505050811b016003556100e5565b01515f1960f88460031b161c191690555f8080610390565b9192602060018192868501518155019401920161037b565b60035f527fc2575a0e9e593c00f959f8c92f12db2869c3395a3b0502d05e2516446f71f85b601f830160051c81019160208410610427575b601f0160051c01905b81811061041c57506100b4565b5f815560010161040f565b9091508190610406565b90607f16906100a2565b5f80fd5b6040519190601f01601f191682016001600160401b0381118382101761034c57604052565b51906001600160a01b038216820361043b5756fe6080806040526004361015610012575f80fd5b5f3560e01c90816306fdde03146110b2575080630902f1ac1461107d578063095ea7b314610ffb5780630dfe168114610fb757806318160ddd14610f9a57806323b872dd14610ebb578063313ce56714610ea05780636a62784214610c1f5780636d9a640a1461076657806370a082311461072f57806389afcb44146103d057806395d89b41146102cc578063a9059cbb1461029b578063d21220a714610257578063dd62ed3e146102075763fff6cae9146100cc575f80fd5b346101be575f3660031901126101be576040516370a0823160e01b81523060048201526020816024817f00000000000000000000000000000000000000000000000000000000000000006001600160a01b03165afa9081156101ca575f916101d5575b506040516370a0823160e01b8152306004820152906020826024817f00000000000000000000000000000000000000000000000000000000000000006001600160a01b03165afa9081156101ca575f91610190575b61018e92506113c9565b005b90506020823d6020116101c2575b816101ab602093836111c0565b810103126101be5761018e915190610184565b5f80fd5b3d915061019e565b6040513d5f823e3d90fd5b90506020813d6020116101ff575b816101f0602093836111c0565b810103126101be57515f61012f565b3d91506101e3565b346101be5760403660031901126101be57610220611194565b6102286111aa565b6001600160a01b039182165f908152600160209081526040808320949093168252928352819020549051908152f35b346101be575f3660031901126101be576040517f00000000000000000000000000000000000000000000000000000000000000006001600160a01b03168152602090f35b346101be5760403660031901126101be576102c16102b7611194565b60243590336112b5565b602060405160018152f35b346101be575f3660031901126101be576040515f6004548060011c906001811680156103c6575b6020831081146103b25782855290811561038e5750600114610330575b61032c83610320818503826111c0565b6040519182918261116a565b0390f35b91905060045f527f8a35acfbc15ff81a39ae7d344fd709f28e8600b4aa8c65c6b64bfe7fe36bd19b915f905b80821061037457509091508101602001610320610310565b91926001816020925483858801015201910190929161035c565b60ff191660208086019190915291151560051b840190910191506103209050610310565b634e487b7160e01b5f52602260045260245ffd5b91607f16916102f3565b346101be5760203660031901126101be576103e9611194565b60016006546103fb60ff8216156111f6565b60ff1916176006556040516370a0823160e01b8152306004820152907f00000000000000000000000000000000000000000000000000000000000000006001600160a01b03811691602084602481865afa9384156101ca575f946106fb575b506040516370a0823160e01b8152306004820152927f00000000000000000000000000000000000000000000000000000000000000006001600160a01b0381169290602086602481875afa9586156101ca575f966106c7575b50305f525f6020526104e56104d96104d96104de60405f20549a6002549384918d611238565b61124b565b988a611238565b94861515806106be575b1561067957301561066657305f525f60205260405f205488811061064b579261056b9261056689838a955f8e60249f60209c9b308452838e5203604083205580600254036002556040519081527fddf252ad1be2c89b69c2b068fc378daa952ba7f163c4a11628f55a4df523b3ef8c3092a3611491565b611491565b6040516370a0823160e01b815230600482015295869182905afa9384156101ca575f94610616575b506020602491604051928380926370a0823160e01b82523060048301525afa9081156101ca575f916105e3575b506105cd906040946113c9565b60ff196006541660065582519182526020820152f35b90506020813d60201161060e575b816105fe602093836111c0565b810103126101be575160406105c0565b3d91506105f1565b9093506020813d602011610643575b81610632602093836111c0565b810103126101be5751926020610593565b3d9150610625565b889063391434e360e21b5f523060045260245260445260645ffd5b634b637e8f60e11b5f525f60045260245ffd5b60405162461bcd60e51b815260206004820152601d60248201527f494e53554646494349454e545f4c49515549444954595f4255524e45440000006044820152606490fd5b508515156104ef565b9095506020813d6020116106f3575b816106e3602093836111c0565b810103126101be575194876104b3565b3d91506106d6565b9093506020813d602011610727575b81610717602093836111c0565b810103126101be5751928461045a565b3d915061070a565b346101be5760203660031901126101be576001600160a01b03610750611194565b165f525f602052602060405f2054604051908152f35b346101be5760603660031901126101be576044356001600160a01b038116906024356004358383036101be5760016006546107a460ff8216156111f6565b60ff19161760065580159283158094610c16575b15610bd1576005546001600160701b038082169560709290921c16919085841080610bbf575b15610b81577f00000000000000000000000000000000000000000000000000000000000000006001600160a01b0381168881141580610b4e575b15610b1c5783602092876024967f000000000000000000000000000000000000000000000000000000000000000096610b0b575b5050508780610afa575b50506040516370a0823160e01b815230600482015293849182905afa9182156101ca575f92610ac5575b506040516370a0823160e01b815230600482015290602090829060249082906001600160a01b03165afa9081156101ca575f91610a93575b505f956108c5858261122b565b8311610a7e575b6001600160701b035f94166108e1878261122b565b8311610a63575b8715801581610a5a575b15610a15576103e88502908582046103e81486151715610a015760038a02908a82046003141715610a01576109269161122b565b906103e88402918483046103e81485151715610a0157600387029087820460031488151715610a015761095f6109659261096b9561122b565b90611238565b92611238565b90620f4240820291808304620f42401490151715610a0157106109d857610991916113c9565b6040519384526020840152604083015260608201527fd78ad95fa46c994b6551d0da85fc275fe613ce37657fb8d5e3d130840159d82260803392a36006805460ff19169055005b60405162461bcd60e51b81526020600482015260016024820152604b60f81b6044820152606490fd5b634e487b7160e01b5f52601160045260245ffd5b60405162461bcd60e51b815260206004820152601960248201527f494e53554646494349454e545f494e5055545f414d4f554e54000000000000006044820152606490fd5b508515156108f2565b9350610a78610a72878661122b565b8361122b565b936108e8565b9550610a8d610a72858861122b565b956108cc565b90506020813d602011610abd575b81610aae602093836111c0565b810103126101be5751876108b8565b3d9150610aa1565b9091506020813d602011610af2575b81610ae1602093836111c0565b810103126101be5751906020610880565b3d9150610ad4565b610b049185611491565b8987610856565b610b1492611491565b8a878261084c565b60405162461bcd60e51b815260206004820152600a602482015269494e56414c49445f544f60b01b6044820152606490fd5b507f00000000000000000000000000000000000000000000000000000000000000006001600160a01b0316891415610818565b60405162461bcd60e51b8152602060048201526016602482015275494e53554646494349454e545f4c495155494449545960501b6044820152606490fd5b506001600160701b03831685106107de565b60405162461bcd60e51b815260206004820152601a60248201527f494e53554646494349454e545f4f55545055545f414d4f554e540000000000006044820152606490fd5b508215156107b8565b346101be5760203660031901126101be57610c38611194565b6001600654610c4a60ff8216156111f6565b60ff1916176006556005546040516370a0823160e01b815230600482015291906001600160701b038082169160701c166020846024816001600160a01b037f0000000000000000000000000000000000000000000000000000000000000000165afa9384156101ca575f94610e6c575b506040516370a0823160e01b8152306004820152916020836024817f00000000000000000000000000000000000000000000000000000000000000006001600160a01b03165afa9283156101ca575f93610e31575b506001600160701b0316906001600160701b03610d2c838761122b565b9116610d38818561122b565b600254909381610ded5750505090610d4f91611238565b925f6003851115610dce5750838460011c60018101809111610a01579490945b858110610dad57505090610d9b91610d966020955b8095610d91821515611269565b61135f565b6113c9565b60ff1960065416600655604051908152f35b909450610dc381610dbe818861124b565b6113bc565b60011c949094610d6f565b90610d9b9291602095610de5575b610d9690610d84565b506001610ddc565b610d96926104d983610e0e610e14946104d9610d9b9b9a9760209e9a611238565b94611238565b80821015610e2a57508095610d91821515611269565b9050610d84565b9092506020813d602011610e64575b81610e4d602093836111c0565b810103126101be5751916001600160701b03610d0f565b3d9150610e40565b9093506020813d602011610e98575b81610e88602093836111c0565b810103126101be57519284610cba565b3d9150610e7b565b346101be575f3660031901126101be57602060405160128152f35b346101be5760603660031901126101be57610ed4611194565b610edc6111aa565b6001600160a01b0382165f818152600160209081526040808320338452909152902054909260443592915f198110610f1a575b506102c193506112b5565b838110610f7f578415610f6c573315610f59576102c1945f52600160205260405f2060018060a01b0333165f526020528360405f209103905584610f0f565b634a1406b160e11b5f525f60045260245ffd5b63e602df0560e01b5f525f60045260245ffd5b8390637dc7a0d960e11b5f523360045260245260445260645ffd5b346101be575f3660031901126101be576020600254604051908152f35b346101be575f3660031901126101be576040517f00000000000000000000000000000000000000000000000000000000000000006001600160a01b03168152602090f35b346101be5760403660031901126101be57611014611194565b602435903315610f6c576001600160a01b0316908115610f5957335f52600160205260405f20825f526020528060405f20556040519081527f8c5be1e5ebec7d5bd14f71427d1e84f3dd0314c0f7b2291e5b200ac8c7c3b92560203392a3602060405160018152f35b346101be575f3660031901126101be57600554604080516001600160701b03808416825260709390931c909216602083015290f35b346101be575f3660031901126101be575f6003548060011c90600181168015611160575b6020831081146103b25782855290811561038e57506001146111025761032c83610320818503826111c0565b91905060035f527fc2575a0e9e593c00f959f8c92f12db2869c3395a3b0502d05e2516446f71f85b915f905b80821061114657509091508101602001610320610310565b91926001816020925483858801015201910190929161112e565b91607f16916110d6565b602060409281835280519182918282860152018484015e5f828201840152601f01601f1916010190565b600435906001600160a01b03821682036101be57565b602435906001600160a01b03821682036101be57565b90601f8019910116810190811067ffffffffffffffff8211176111e257604052565b634e487b7160e01b5f52604160045260245ffd5b156111fd57565b60405162461bcd60e51b81526020600482015260066024820152651313d0d2d15160d21b6044820152606490fd5b91908203918211610a0157565b81810292918115918404141715610a0157565b8115611255570490565b634e487b7160e01b5f52601260045260245ffd5b1561127057565b60405162461bcd60e51b815260206004820152601d60248201527f494e53554646494349454e545f4c49515549444954595f4d494e5445440000006044820152606490fd5b6001600160a01b0316908115610666576001600160a01b031691821561134c57815f525f60205260405f205481811061133357817fddf252ad1be2c89b69c2b068fc378daa952ba7f163c4a11628f55a4df523b3ef92602092855f525f84520360405f2055845f525f825260405f20818154019055604051908152a3565b8263391434e360e21b5f5260045260245260445260645ffd5b63ec442f0560e01b5f525f60045260245ffd5b6001600160a01b031690811561134c577fddf252ad1be2c89b69c2b068fc378daa952ba7f163c4a11628f55a4df523b3ef6020826113a05f946002546113bc565b60025584845283825260408420818154019055604051908152a3565b91908201809211610a0157565b6001600160701b0381111580611480575b1561145057600580546001600160e01b0319166001600160701b03928316908117607094851b6dffffffffffffffffffffffffffff60701b161791829055604080519182529190931c90911660208301527f1c411e9a96e071241c2f21f7726b17ae89e3cab4c78be50e062b03a9fffbbad191a1565b60405162461bcd60e51b81526020600482015260086024820152674f564552464c4f5760c01b6044820152606490fd5b506001600160701b038211156113da565b60405163a9059cbb60e01b81526001600160a01b0392831660048201526024810193909352602091839160449183915f91165af19081156101ca575f91611512575b50156114db57565b60405162461bcd60e51b815260206004820152600f60248201526e1514905394d1915497d19052531151608a1b6044820152606490fd5b90506020813d602011611545575b8161152d602093836111c0565b810103126101be575180151581036101be575f6114d3565b3d915061152056fea2646970667358221220af9784fd4b7de7c6d473709a452903b962886712064cdd41885f3057cf4fdfdb64736f6c634300081e0033a2646970667358221220129bdbc163d784ea32c424466e7df3ac2f6217ea029dd1072b2d7630ff3db6f864736f6c634300081e0033","linkReferences":{}},"methodIdentifiers":{"allPairs(uint256)":"1e3dd18b","allPairsLength()":"574f2ba3","createPair(address,address)":"c9c65396","getPair(address,address)":"e6a43905"},"id":25}